{
  "_format": "hh-sol-artifact-1",
  "contractName": "Certificate",
  "sourceName": "contracts/Certificate.sol",
  "abi": [
    {
      "inputs": [],
      "stateMutability": "nonpayable",
      "type": "constructor"
    },
    {
      "inputs": [
        {
          "internalType": "address",
          "name": "sender",
          "type": "address"
        },
        {
          "internalType": "uint256",
          "name": "tokenId",
          "type": "uint256"
        },
        {
          "internalType": "address",
          "name": "owner",
          "type": "address"
        }
      ],
      "name": "ERC721IncorrectOwner",
      "type": "error"
    },
    {
      "inputs": [
        {
          "internalType": "address",
          "name": "operator",
          "type": "address"
        },
        {
          "internalType": "uint256",
          "name": "tokenId",
          "type": "uint256"
        }
      ],
      "name": "ERC721InsufficientApproval",
      "type": "error"
    },
    {
      "inputs": [
        {
          "internalType": "address",
          "name": "approver",
          "type": "address"
        }
      ],
      "name": "ERC721InvalidApprover",
      "type": "error"
    },
    {
      "inputs": [
        {
          "internalType": "address",
          "name": "operator",
          "type": "address"
        }
      ],
      "name": "ERC721InvalidOperator",
      "type": "error"
    },
    {
      "inputs": [
        {
          "internalType": "address",
          "name": "owner",
          "type": "address"
        }
      ],
      "name": "ERC721InvalidOwner",
      "type": "error"
    },
    {
      "inputs": [
        {
          "internalType": "address",
          "name": "receiver",
          "type": "address"
        }
      ],
      "name": "ERC721InvalidReceiver",
      "type": "error"
    },
    {
      "inputs": [
        {
          "internalType": "address",
          "name": "sender",
          "type": "address"
        }
      ],
      "name": "ERC721InvalidSender",
      "type": "error"
    },
    {
      "inputs": [
        {
          "internalType": "uint256",
          "name": "tokenId",
          "type": "uint256"
        }
      ],
      "name": "ERC721NonexistentToken",
      "type": "error"
    },
    {
      "anonymous": false,
      "inputs": [
        {
          "indexed": true,
          "internalType": "address",
          "name": "owner",
          "type": "address"
        },
        {
          "indexed": true,
          "internalType": "address",
          "name": "approved",
          "type": "address"
        },
        {
          "indexed": true,
          "internalType": "uint256",
          "name": "tokenId",
          "type": "uint256"
        }
      ],
      "name": "Approval",
      "type": "event"
    },
    {
      "anonymous": false,
      "inputs": [
        {
          "indexed": true,
          "internalType": "address",
          "name": "owner",
          "type": "address"
        },
        {
          "indexed": true,
          "internalType": "address",
          "name": "operator",
          "type": "address"
        },
        {
          "indexed": false,
          "internalType": "bool",
          "name": "approved",
          "type": "bool"
        }
      ],
      "name": "ApprovalForAll",
      "type": "event"
    },
    {
      "anonymous": false,
      "inputs": [
        {
          "indexed": false,
          "internalType": "uint256",
          "name": "_fromTokenId",
          "type": "uint256"
        },
        {
          "indexed": false,
          "internalType": "uint256",
          "name": "_toTokenId",
          "type": "uint256"
        }
      ],
      "name": "BatchMetadataUpdate",
      "type": "event"
    },
    {
      "anonymous": false,
      "inputs": [
        {
          "indexed": true,
          "internalType": "uint256",
          "name": "NFTId",
          "type": "uint256"
        },
        {
          "indexed": false,
          "internalType": "address",
          "name": "walletAddress",
          "type": "address"
        },
        {
          "indexed": false,
          "internalType": "string",
          "name": "studentId",
          "type": "string"
        },
        {
          "indexed": false,
          "internalType": "string",
          "name": "courseId",
          "type": "string"
        }
      ],
      "name": "CertificateMinted",
      "type": "event"
    },
    {
      "anonymous": false,
      "inputs": [
        {
          "indexed": false,
          "internalType": "uint256",
          "name": "_tokenId",
          "type": "uint256"
        }
      ],
      "name": "MetadataUpdate",
      "type": "event"
    },
    {
      "anonymous": false,
      "inputs": [
        {
          "indexed": true,
          "internalType": "address",
          "name": "from",
          "type": "address"
        },
        {
          "indexed": true,
          "internalType": "address",
          "name": "to",
          "type": "address"
        },
        {
          "indexed": true,
          "internalType": "uint256",
          "name": "tokenId",
          "type": "uint256"
        }
      ],
      "name": "Transfer",
      "type": "event"
    },
    {
      "inputs": [
        {
          "internalType": "address",
          "name": "to",
          "type": "address"
        },
        {
          "internalType": "uint256",
          "name": "tokenId",
          "type": "uint256"
        }
      ],
      "name": "approve",
      "outputs": [],
      "stateMutability": "nonpayable",
      "type": "function"
    },
    {
      "inputs": [
        {
          "internalType": "address",
          "name": "owner",
          "type": "address"
        }
      ],
      "name": "balanceOf",
      "outputs": [
        {
          "internalType": "uint256",
          "name": "",
          "type": "uint256"
        }
      ],
      "stateMutability": "view",
      "type": "function"
    },
    {
      "inputs": [
        {
          "internalType": "uint256",
          "name": "tokenId",
          "type": "uint256"
        }
      ],
      "name": "getApproved",
      "outputs": [
        {
          "internalType": "address",
          "name": "",
          "type": "address"
        }
      ],
      "stateMutability": "view",
      "type": "function"
    },
    {
      "inputs": [
        {
          "internalType": "address",
          "name": "owner",
          "type": "address"
        },
        {
          "internalType": "address",
          "name": "operator",
          "type": "address"
        }
      ],
      "name": "isApprovedForAll",
      "outputs": [
        {
          "internalType": "bool",
          "name": "",
          "type": "bool"
        }
      ],
      "stateMutability": "view",
      "type": "function"
    },
    {
      "inputs": [
        {
          "internalType": "string",
          "name": "studentId",
          "type": "string"
        },
        {
          "internalType": "string",
          "name": "courseId",
          "type": "string"
        },
        {
          "internalType": "string",
          "name": "tokenURI",
          "type": "string"
        }
      ],
      "name": "mintCertificate",
      "outputs": [
        {
          "internalType": "uint256",
          "name": "",
          "type": "uint256"
        }
      ],
      "stateMutability": "nonpayable",
      "type": "function"
    },
    {
      "inputs": [],
      "name": "name",
      "outputs": [
        {
          "internalType": "string",
          "name": "",
          "type": "string"
        }
      ],
      "stateMutability": "view",
      "type": "function"
    },
    {
      "inputs": [
        {
          "internalType": "uint256",
          "name": "tokenId",
          "type": "uint256"
        }
      ],
      "name": "ownerOf",
      "outputs": [
        {
          "internalType": "address",
          "name": "",
          "type": "address"
        }
      ],
      "stateMutability": "view",
      "type": "function"
    },
    {
      "inputs": [
        {
          "internalType": "address",
          "name": "from",
          "type": "address"
        },
        {
          "internalType": "address",
          "name": "to",
          "type": "address"
        },
        {
          "internalType": "uint256",
          "name": "tokenId",
          "type": "uint256"
        }
      ],
      "name": "safeTransferFrom",
      "outputs": [],
      "stateMutability": "nonpayable",
      "type": "function"
    },
    {
      "inputs": [
        {
          "internalType": "address",
          "name": "from",
          "type": "address"
        },
        {
          "internalType": "address",
          "name": "to",
          "type": "address"
        },
        {
          "internalType": "uint256",
          "name": "tokenId",
          "type": "uint256"
        },
        {
          "internalType": "bytes",
          "name": "data",
          "type": "bytes"
        }
      ],
      "name": "safeTransferFrom",
      "outputs": [],
      "stateMutability": "nonpayable",
      "type": "function"
    },
    {
      "inputs": [
        {
          "internalType": "address",
          "name": "operator",
          "type": "address"
        },
        {
          "internalType": "bool",
          "name": "approved",
          "type": "bool"
        }
      ],
      "name": "setApprovalForAll",
      "outputs": [],
      "stateMutability": "nonpayable",
      "type": "function"
    },
    {
      "inputs": [
        {
          "internalType": "string",
          "name": "",
          "type": "string"
        },
        {
          "internalType": "string",
          "name": "",
          "type": "string"
        }
      ],
      "name": "studentCertificates",
      "outputs": [
        {
          "internalType": "uint256",
          "name": "",
          "type": "uint256"
        }
      ],
      "stateMutability": "view",
      "type": "function"
    },
    {
      "inputs": [
        {
          "internalType": "bytes4",
          "name": "interfaceId",
          "type": "bytes4"
        }
      ],
      "name": "supportsInterface",
      "outputs": [
        {
          "internalType": "bool",
          "name": "",
          "type": "bool"
        }
      ],
      "stateMutability": "view",
      "type": "function"
    },
    {
      "inputs": [],
      "name": "symbol",
      "outputs": [
        {
          "internalType": "string",
          "name": "",
          "type": "string"
        }
      ],
      "stateMutability": "view",
      "type": "function"
    },
    {
      "inputs": [
        {
          "internalType": "uint256",
          "name": "tokenId",
          "type": "uint256"
        }
      ],
      "name": "tokenURI",
      "outputs": [
        {
          "internalType": "string",
          "name": "",
          "type": "string"
        }
      ],
      "stateMutability": "view",
      "type": "function"
    },
    {
      "inputs": [
        {
          "internalType": "address",
          "name": "from",
          "type": "address"
        },
        {
          "internalType": "address",
          "name": "to",
          "type": "address"
        },
        {
          "internalType": "uint256",
          "name": "tokenId",
          "type": "uint256"
        }
      ],
      "name": "transferFrom",
      "outputs": [],
      "stateMutability": "nonpayable",
      "type": "function"
    }
  ],
  "bytecode": "0x60806040526107b26007553480156200001757600080fd5b506040518060400160405280600d81526020017f556d6d616820436f6e6e656374000000000000000000000000000000000000008152506040518060400160405280600581526020017f554d434e5400000000000000000000000000000000000000000000000000000081525081600090816200009591906200032a565b508060019081620000a791906200032a565b50505062000411565b600081519050919050565b7f4e487b7100000000000000000000000000000000000000000000000000000000600052604160045260246000fd5b7f4e487b7100000000000000000000000000000000000000000000000000000000600052602260045260246000fd5b600060028204905060018216806200013257607f821691505b602082108103620001485762000147620000ea565b5b50919050565b60008190508160005260206000209050919050565b60006020601f8301049050919050565b600082821b905092915050565b600060088302620001b27fffffffffffffffffffffffffffffffffffffffffffffffffffffffffffffffff8262000173565b620001be868362000173565b95508019841693508086168417925050509392505050565b6000819050919050565b6000819050919050565b60006200020b62000205620001ff84620001d6565b620001e0565b620001d6565b9050919050565b6000819050919050565b6200022783620001ea565b6200023f620002368262000212565b84845462000180565b825550505050565b600090565b6200025662000247565b620002638184846200021c565b505050565b5b818110156200028b576200027f6000826200024c565b60018101905062000269565b5050565b601f821115620002da57620002a4816200014e565b620002af8462000163565b81016020851015620002bf578190505b620002d7620002ce8562000163565b83018262000268565b50505b505050565b600082821c905092915050565b6000620002ff60001984600802620002df565b1980831691505092915050565b60006200031a8383620002ec565b9150826002028217905092915050565b6200033582620000b0565b67ffffffffffffffff811115620003515762000350620000bb565b5b6200035d825462000119565b6200036a8282856200028f565b600060209050601f831160018114620003a257600084156200038d578287015190505b6200039985826200030c565b86555062000409565b601f198416620003b2866200014e565b60005b82811015620003dc57848901518255600182019150602085019450602081019050620003b5565b86831015620003fc5784890151620003f8601f891682620002ec565b8355505b6001600288020188555050505b505050505050565b61273080620004216000396000f3fe608060405234801561001057600080fd5b50600436106100f55760003560e01c80636352211e11610097578063b0a28f7f11610066578063b0a28f7f14610296578063b88d4fde146102c6578063c87b56dd146102e2578063e985e9c514610312576100f5565b80636352211e146101fc57806370a082311461022c57806395d89b411461025c578063a22cb4651461027a576100f5565b8063095ea7b3116100d3578063095ea7b31461017857806323b872dd1461019457806342842e0e146101b057806347cd935c146101cc576100f5565b806301ffc9a7146100fa57806306fdde031461012a578063081812fc14610148575b600080fd5b610114600480360381019061010f91906119d7565b610342565b6040516101219190611a1f565b60405180910390f35b6101326103a3565b60405161013f9190611aca565b60405180910390f35b610162600480360381019061015d9190611b22565b610435565b60405161016f9190611b90565b60405180910390f35b610192600480360381019061018d9190611bd7565b610451565b005b6101ae60048036038101906101a99190611c17565b610467565b005b6101ca60048036038101906101c59190611c17565b610569565b005b6101e660048036038101906101e19190611d9f565b610589565b6040516101f39190611e26565b60405180910390f35b61021660048036038101906102119190611b22565b6105da565b6040516102239190611b90565b60405180910390f35b61024660048036038101906102419190611e41565b6105ec565b6040516102539190611e26565b60405180910390f35b6102646106a6565b6040516102719190611aca565b60405180910390f35b610294600480360381019061028f9190611e9a565b610738565b005b6102b060048036038101906102ab9190611eda565b61074e565b6040516102bd9190611e26565b60405180910390f35b6102e060048036038101906102db9190612022565b610885565b005b6102fc60048036038101906102f79190611b22565b6108a2565b6040516103099190611aca565b60405180910390f35b61032c600480360381019061032791906120a5565b6109b5565b6040516103399190611a1f565b60405180910390f35b6000634906490660e01b7bffffffffffffffffffffffffffffffffffffffffffffffffffffffff1916827bffffffffffffffffffffffffffffffffffffffffffffffffffffffff1916148061039c575061039b82610a49565b5b9050919050565b6060600080546103b290612114565b80601f01602080910402602001604051908101604052809291908181526020018280546103de90612114565b801561042b5780601f106104005761010080835404028352916020019161042b565b820191906000526020600020905b81548152906001019060200180831161040e57829003601f168201915b5050505050905090565b600061044082610b2b565b5061044a82610bb3565b9050919050565b610463828261045e610bf0565b610bf8565b5050565b600073ffffffffffffffffffffffffffffffffffffffff168273ffffffffffffffffffffffffffffffffffffffff16036104d95760006040517f64a0ae920000000000000000000000000000000000000000000000000000000081526004016104d09190611b90565b60405180910390fd5b60006104ed83836104e8610bf0565b610c0a565b90508373ffffffffffffffffffffffffffffffffffffffff168173ffffffffffffffffffffffffffffffffffffffff1614610563578382826040517f64283d7b00000000000000000000000000000000000000000000000000000000815260040161055a93929190612145565b60405180910390fd5b50505050565b61058483838360405180602001604052806000815250610885565b505050565b60088280516020810182018051848252602083016020850120818352809550505050505081805160208101820180518482526020830160208501208183528095505050505050600091509150505481565b60006105e582610b2b565b9050919050565b60008073ffffffffffffffffffffffffffffffffffffffff168273ffffffffffffffffffffffffffffffffffffffff160361065f5760006040517f89c62b640000000000000000000000000000000000000000000000000000000081526004016106569190611b90565b60405180910390fd5b600360008373ffffffffffffffffffffffffffffffffffffffff1673ffffffffffffffffffffffffffffffffffffffff168152602001908152602001600020549050919050565b6060600180546106b590612114565b80601f01602080910402602001604051908101604052809291908181526020018280546106e190612114565b801561072e5780601f106107035761010080835404028352916020019161072e565b820191906000526020600020905b81548152906001019060200180831161071157829003601f168201915b5050505050905090565b61074a610743610bf0565b8383610e24565b5050565b60008060088560405161076191906121b8565b90815260200160405180910390208460405161077d91906121b8565b908152602001604051809103902054146107cc576040517f08c379a00000000000000000000000000000000000000000000000000000000081526004016107c390612241565b60405180910390fd5b60006007549050600760008154809291906107e690612290565b91905055506107f53382610f93565b6107ff8184610fb1565b8060088660405161081091906121b8565b90815260200160405180910390208560405161082c91906121b8565b908152602001604051809103902081905550807f4f702e06a1f6360f8c5c1f8fdcbc9c3ca58ec1fca317d02ad7ce162c88995108338787604051610872939291906122d8565b60405180910390a2809150509392505050565b610890848484610467565b61089c8484848461100d565b50505050565b60606108ad82610b2b565b5060006006600084815260200190815260200160002080546108ce90612114565b80601f01602080910402602001604051908101604052809291908181526020018280546108fa90612114565b80156109475780601f1061091c57610100808354040283529160200191610947565b820191906000526020600020905b81548152906001019060200180831161092a57829003601f168201915b5050505050905060006109586111c4565b9050600081510361096d5781925050506109b0565b6000825111156109a257808260405160200161098a92919061231d565b604051602081830303815290604052925050506109b0565b6109ab846111db565b925050505b919050565b6000600560008473ffffffffffffffffffffffffffffffffffffffff1673ffffffffffffffffffffffffffffffffffffffff16815260200190815260200160002060008373ffffffffffffffffffffffffffffffffffffffff1673ffffffffffffffffffffffffffffffffffffffff16815260200190815260200160002060009054906101000a900460ff16905092915050565b60007f80ac58cd000000000000000000000000000000000000000000000000000000007bffffffffffffffffffffffffffffffffffffffffffffffffffffffff1916827bffffffffffffffffffffffffffffffffffffffffffffffffffffffff19161480610b1457507f5b5e139f000000000000000000000000000000000000000000000000000000007bffffffffffffffffffffffffffffffffffffffffffffffffffffffff1916827bffffffffffffffffffffffffffffffffffffffffffffffffffffffff1916145b80610b245750610b2382611244565b5b9050919050565b600080610b37836112ae565b9050600073ffffffffffffffffffffffffffffffffffffffff168173ffffffffffffffffffffffffffffffffffffffff1603610baa57826040517f7e273289000000000000000000000000000000000000000000000000000000008152600401610ba19190611e26565b60405180910390fd5b80915050919050565b60006004600083815260200190815260200160002060009054906101000a900473ffffffffffffffffffffffffffffffffffffffff169050919050565b600033905090565b610c0583838360016112eb565b505050565b600080610c16846112ae565b9050600073ffffffffffffffffffffffffffffffffffffffff168373ffffffffffffffffffffffffffffffffffffffff1614610c5857610c578184866114b0565b5b600073ffffffffffffffffffffffffffffffffffffffff168173ffffffffffffffffffffffffffffffffffffffff1614610ce957610c9a6000856000806112eb565b6001600360008373ffffffffffffffffffffffffffffffffffffffff1673ffffffffffffffffffffffffffffffffffffffff168152602001908152602001600020600082825403925050819055505b600073ffffffffffffffffffffffffffffffffffffffff168573ffffffffffffffffffffffffffffffffffffffff1614610d6c576001600360008773ffffffffffffffffffffffffffffffffffffffff1673ffffffffffffffffffffffffffffffffffffffff168152602001908152602001600020600082825401925050819055505b846002600086815260200190815260200160002060006101000a81548173ffffffffffffffffffffffffffffffffffffffff021916908373ffffffffffffffffffffffffffffffffffffffff160217905550838573ffffffffffffffffffffffffffffffffffffffff168273ffffffffffffffffffffffffffffffffffffffff167fddf252ad1be2c89b69c2b068fc378daa952ba7f163c4a11628f55a4df523b3ef60405160405180910390a4809150509392505050565b600073ffffffffffffffffffffffffffffffffffffffff168273ffffffffffffffffffffffffffffffffffffffff1603610e9557816040517f5b08ba18000000000000000000000000000000000000000000000000000000008152600401610e8c9190611b90565b60405180910390fd5b80600560008573ffffffffffffffffffffffffffffffffffffffff1673ffffffffffffffffffffffffffffffffffffffff16815260200190815260200160002060008473ffffffffffffffffffffffffffffffffffffffff1673ffffffffffffffffffffffffffffffffffffffff16815260200190815260200160002060006101000a81548160ff0219169083151502179055508173ffffffffffffffffffffffffffffffffffffffff168373ffffffffffffffffffffffffffffffffffffffff167f17307eab39ab6107e8899845ad3d59bd9653f200f220920489ca2b5937696c3183604051610f869190611a1f565b60405180910390a3505050565b610fad828260405180602001604052806000815250611574565b5050565b80600660008481526020019081526020016000209081610fd191906124ed565b507ff8e1a15aba9398e019f0b49df1a4fde98ee17ae345cb5f6b5e2c27f5033e8ce7826040516110019190611e26565b60405180910390a15050565b60008373ffffffffffffffffffffffffffffffffffffffff163b11156111be578273ffffffffffffffffffffffffffffffffffffffff1663150b7a02611051610bf0565b8685856040518563ffffffff1660e01b81526004016110739493929190612614565b6020604051808303816000875af19250505080156110af57506040513d601f19601f820116820180604052508101906110ac9190612675565b60015b611133573d80600081146110df576040519150601f19603f3d011682016040523d82523d6000602084013e6110e4565b606091505b50600081510361112b57836040517f64a0ae920000000000000000000000000000000000000000000000000000000081526004016111229190611b90565b60405180910390fd5b805181602001fd5b63150b7a0260e01b7bffffffffffffffffffffffffffffffffffffffffffffffffffffffff1916817bffffffffffffffffffffffffffffffffffffffffffffffffffffffff1916146111bc57836040517f64a0ae920000000000000000000000000000000000000000000000000000000081526004016111b39190611b90565b60405180910390fd5b505b50505050565b606060405180602001604052806000815250905090565b60606111e682610b2b565b5060006111f16111c4565b90506000815111611211576040518060200160405280600081525061123c565b8061121b84611590565b60405160200161122c92919061231d565b6040516020818303038152906040525b915050919050565b60007f01ffc9a7000000000000000000000000000000000000000000000000000000007bffffffffffffffffffffffffffffffffffffffffffffffffffffffff1916827bffffffffffffffffffffffffffffffffffffffffffffffffffffffff1916149050919050565b60006002600083815260200190815260200160002060009054906101000a900473ffffffffffffffffffffffffffffffffffffffff169050919050565b80806113245750600073ffffffffffffffffffffffffffffffffffffffff168273ffffffffffffffffffffffffffffffffffffffff1614155b1561145857600061133484610b2b565b9050600073ffffffffffffffffffffffffffffffffffffffff168373ffffffffffffffffffffffffffffffffffffffff161415801561139f57508273ffffffffffffffffffffffffffffffffffffffff168173ffffffffffffffffffffffffffffffffffffffff1614155b80156113b257506113b081846109b5565b155b156113f457826040517fa9fbf51f0000000000000000000000000000000000000000000000000000000081526004016113eb9190611b90565b60405180910390fd5b811561145657838573ffffffffffffffffffffffffffffffffffffffff168273ffffffffffffffffffffffffffffffffffffffff167f8c5be1e5ebec7d5bd14f71427d1e84f3dd0314c0f7b2291e5b200ac8c7c3b92560405160405180910390a45b505b836004600085815260200190815260200160002060006101000a81548173ffffffffffffffffffffffffffffffffffffffff021916908373ffffffffffffffffffffffffffffffffffffffff16021790555050505050565b6114bb83838361165e565b61156f57600073ffffffffffffffffffffffffffffffffffffffff168373ffffffffffffffffffffffffffffffffffffffff160361153057806040517f7e2732890000000000000000000000000000000000000000000000000000000081526004016115279190611e26565b60405180910390fd5b81816040517f177e802f0000000000000000000000000000000000000000000000000000000081526004016115669291906126a2565b60405180910390fd5b505050565b61157e838361171f565b61158b600084848461100d565b505050565b60606000600161159f84611818565b01905060008167ffffffffffffffff8111156115be576115bd611c74565b5b6040519080825280601f01601f1916602001820160405280156115f05781602001600182028036833780820191505090505b509050600082602001820190505b600115611653578080600190039150507f3031323334353637383961626364656600000000000000000000000000000000600a86061a8153600a8581611647576116466126cb565b5b049450600085036115fe575b819350505050919050565b60008073ffffffffffffffffffffffffffffffffffffffff168373ffffffffffffffffffffffffffffffffffffffff161415801561171657508273ffffffffffffffffffffffffffffffffffffffff168473ffffffffffffffffffffffffffffffffffffffff1614806116d757506116d684846109b5565b5b8061171557508273ffffffffffffffffffffffffffffffffffffffff166116fd83610bb3565b73ffffffffffffffffffffffffffffffffffffffff16145b5b90509392505050565b600073ffffffffffffffffffffffffffffffffffffffff168273ffffffffffffffffffffffffffffffffffffffff16036117915760006040517f64a0ae920000000000000000000000000000000000000000000000000000000081526004016117889190611b90565b60405180910390fd5b600061179f83836000610c0a565b9050600073ffffffffffffffffffffffffffffffffffffffff168173ffffffffffffffffffffffffffffffffffffffff16146118135760006040517f73c6ac6e00000000000000000000000000000000000000000000000000000000815260040161180a9190611b90565b60405180910390fd5b505050565b600080600090507a184f03e93ff9f4daa797ed6e38ed64bf6a1f0100000000000000008310611876577a184f03e93ff9f4daa797ed6e38ed64bf6a1f010000000000000000838161186c5761186b6126cb565b5b0492506040810190505b6d04ee2d6d415b85acef810000000083106118b3576d04ee2d6d415b85acef810000000083816118a9576118a86126cb565b5b0492506020810190505b662386f26fc1000083106118e257662386f26fc1000083816118d8576118d76126cb565b5b0492506010810190505b6305f5e100831061190b576305f5e1008381611901576119006126cb565b5b0492506008810190505b6127108310611930576127108381611926576119256126cb565b5b0492506004810190505b606483106119535760648381611949576119486126cb565b5b0492506002810190505b600a8310611962576001810190505b80915050919050565b6000604051905090565b600080fd5b600080fd5b60007fffffffff0000000000000000000000000000000000000000000000000000000082169050919050565b6119b48161197f565b81146119bf57600080fd5b50565b6000813590506119d1816119ab565b92915050565b6000602082840312156119ed576119ec611975565b5b60006119fb848285016119c2565b91505092915050565b60008115159050919050565b611a1981611a04565b82525050565b6000602082019050611a346000830184611a10565b92915050565b600081519050919050565b600082825260208201905092915050565b60005b83811015611a74578082015181840152602081019050611a59565b60008484015250505050565b6000601f19601f8301169050919050565b6000611a9c82611a3a565b611aa68185611a45565b9350611ab6818560208601611a56565b611abf81611a80565b840191505092915050565b60006020820190508181036000830152611ae48184611a91565b905092915050565b6000819050919050565b611aff81611aec565b8114611b0a57600080fd5b50565b600081359050611b1c81611af6565b92915050565b600060208284031215611b3857611b37611975565b5b6000611b4684828501611b0d565b91505092915050565b600073ffffffffffffffffffffffffffffffffffffffff82169050919050565b6000611b7a82611b4f565b9050919050565b611b8a81611b6f565b82525050565b6000602082019050611ba56000830184611b81565b92915050565b611bb481611b6f565b8114611bbf57600080fd5b50565b600081359050611bd181611bab565b92915050565b60008060408385031215611bee57611bed611975565b5b6000611bfc85828601611bc2565b9250506020611c0d85828601611b0d565b9150509250929050565b600080600060608486031215611c3057611c2f611975565b5b6000611c3e86828701611bc2565b9350506020611c4f86828701611bc2565b9250506040611c6086828701611b0d565b9150509250925092565b600080fd5b600080fd5b7f4e487b7100000000000000000000000000000000000000000000000000000000600052604160045260246000fd5b611cac82611a80565b810181811067ffffffffffffffff82111715611ccb57611cca611c74565b5b80604052505050565b6000611cde61196b565b9050611cea8282611ca3565b919050565b600067ffffffffffffffff821115611d0a57611d09611c74565b5b611d1382611a80565b9050602081019050919050565b82818337600083830152505050565b6000611d42611d3d84611cef565b611cd4565b905082815260208101848484011115611d5e57611d5d611c6f565b5b611d69848285611d20565b509392505050565b600082601f830112611d8657611d85611c6a565b5b8135611d96848260208601611d2f565b91505092915050565b60008060408385031215611db657611db5611975565b5b600083013567ffffffffffffffff811115611dd457611dd361197a565b5b611de085828601611d71565b925050602083013567ffffffffffffffff811115611e0157611e0061197a565b5b611e0d85828601611d71565b9150509250929050565b611e2081611aec565b82525050565b6000602082019050611e3b6000830184611e17565b92915050565b600060208284031215611e5757611e56611975565b5b6000611e6584828501611bc2565b91505092915050565b611e7781611a04565b8114611e8257600080fd5b50565b600081359050611e9481611e6e565b92915050565b60008060408385031215611eb157611eb0611975565b5b6000611ebf85828601611bc2565b9250506020611ed085828601611e85565b9150509250929050565b600080600060608486031215611ef357611ef2611975565b5b600084013567ffffffffffffffff811115611f1157611f1061197a565b5b611f1d86828701611d71565b935050602084013567ffffffffffffffff811115611f3e57611f3d61197a565b5b611f4a86828701611d71565b925050604084013567ffffffffffffffff811115611f6b57611f6a61197a565b5b611f7786828701611d71565b9150509250925092565b600067ffffffffffffffff821115611f9c57611f9b611c74565b5b611fa582611a80565b9050602081019050919050565b6000611fc5611fc084611f81565b611cd4565b905082815260208101848484011115611fe157611fe0611c6f565b5b611fec848285611d20565b509392505050565b600082601f83011261200957612008611c6a565b5b8135612019848260208601611fb2565b91505092915050565b6000806000806080858703121561203c5761203b611975565b5b600061204a87828801611bc2565b945050602061205b87828801611bc2565b935050604061206c87828801611b0d565b925050606085013567ffffffffffffffff81111561208d5761208c61197a565b5b61209987828801611ff4565b91505092959194509250565b600080604083850312156120bc576120bb611975565b5b60006120ca85828601611bc2565b92505060206120db85828601611bc2565b9150509250929050565b7f4e487b7100000000000000000000000000000000000000000000000000000000600052602260045260246000fd5b6000600282049050600182168061212c57607f821691505b60208210810361213f5761213e6120e5565b5b50919050565b600060608201905061215a6000830186611b81565b6121676020830185611e17565b6121746040830184611b81565b949350505050565b600081905092915050565b600061219282611a3a565b61219c818561217c565b93506121ac818560208601611a56565b80840191505092915050565b60006121c48284612187565b915081905092915050565b7f436572746966696361746520616c72656164792065786973747320666f72207460008201527f6869732073747564656e7420616e6420636f7572736500000000000000000000602082015250565b600061222b603683611a45565b9150612236826121cf565b604082019050919050565b6000602082019050818103600083015261225a8161221e565b9050919050565b7f4e487b7100000000000000000000000000000000000000000000000000000000600052601160045260246000fd5b600061229b82611aec565b91507fffffffffffffffffffffffffffffffffffffffffffffffffffffffffffffffff82036122cd576122cc612261565b5b600182019050919050565b60006060820190506122ed6000830186611b81565b81810360208301526122ff8185611a91565b905081810360408301526123138184611a91565b9050949350505050565b60006123298285612187565b91506123358284612187565b91508190509392505050565b60008190508160005260206000209050919050565b60006020601f8301049050919050565b600082821b905092915050565b6000600883026123a37fffffffffffffffffffffffffffffffffffffffffffffffffffffffffffffffff82612366565b6123ad8683612366565b95508019841693508086168417925050509392505050565b6000819050919050565b60006123ea6123e56123e084611aec565b6123c5565b611aec565b9050919050565b6000819050919050565b612404836123cf565b612418612410826123f1565b848454612373565b825550505050565b600090565b61242d612420565b6124388184846123fb565b505050565b5b8181101561245c57612451600082612425565b60018101905061243e565b5050565b601f8211156124a15761247281612341565b61247b84612356565b8101602085101561248a578190505b61249e61249685612356565b83018261243d565b50505b505050565b600082821c905092915050565b60006124c4600019846008026124a6565b1980831691505092915050565b60006124dd83836124b3565b9150826002028217905092915050565b6124f682611a3a565b67ffffffffffffffff81111561250f5761250e611c74565b5b6125198254612114565b612524828285612460565b600060209050601f8311600181146125575760008415612545578287015190505b61254f85826124d1565b8655506125b7565b601f19841661256586612341565b60005b8281101561258d57848901518255600182019150602085019450602081019050612568565b868310156125aa57848901516125a6601f8916826124b3565b8355505b6001600288020188555050505b505050505050565b600081519050919050565b600082825260208201905092915050565b60006125e6826125bf565b6125f081856125ca565b9350612600818560208601611a56565b61260981611a80565b840191505092915050565b60006080820190506126296000830187611b81565b6126366020830186611b81565b6126436040830185611e17565b818103606083015261265581846125db565b905095945050505050565b60008151905061266f816119ab565b92915050565b60006020828403121561268b5761268a611975565b5b600061269984828501612660565b91505092915050565b60006040820190506126b76000830185611b81565b6126c46020830184611e17565b9392505050565b7f4e487b7100000000000000000000000000000000000000000000000000000000600052601260045260246000fdfea2646970667358221220acd5493f444425dffbd596cbbc017dde531b9d17c95ebf5bac45ef3e7c40167464736f6c63430008180033",
  "linkReferences": {},
  "deployedLinkReferences": {}
}